{
  "_format": "hh-sol-artifact-1",
  "contractName": "BitcoinSPV",
  "sourceName": "contracts/BitcoinSPV.sol",
  "abi": [
    {
      "inputs": [
        {
          "internalType": "bytes32",
          "name": "trustedBlockHash",
          "type": "bytes32"
        }
      ],
      "stateMutability": "nonpayable",
      "type": "constructor"
    },
    {
      "anonymous": false,
      "inputs": [
        {
          "indexed": true,
          "internalType": "bytes32",
          "name": "blockHash",
          "type": "bytes32"
        }
      ],
      "name": "HeaderSubmitted",
      "type": "event"
    },
    {
      "inputs": [
        {
          "internalType": "bytes",
          "name": "header",
          "type": "bytes"
        },
        {
          "internalType": "uint256",
          "name": "simplifiedTarget",
          "type": "uint256"
        }
      ],
      "name": "checkPoW",
      "outputs": [
        {
          "internalType": "bool",
          "name": "",
          "type": "bool"
        }
      ],
      "stateMutability": "pure",
      "type": "function"
    },
    {
      "inputs": [
        {
          "internalType": "bytes",
          "name": "data",
          "type": "bytes"
        }
      ],
      "name": "hash256",
      "outputs": [
        {
          "internalType": "bytes32",
          "name": "",
          "type": "bytes32"
        }
      ],
      "stateMutability": "pure",
      "type": "function"
    },
    {
      "inputs": [
        {
          "internalType": "bytes32",
          "name": "",
          "type": "bytes32"
        }
      ],
      "name": "knownHeaders",
      "outputs": [
        {
          "internalType": "bool",
          "name": "",
          "type": "bool"
        }
      ],
      "stateMutability": "view",
      "type": "function"
    },
    {
      "inputs": [
        {
          "internalType": "bytes",
          "name": "header",
          "type": "bytes"
        }
      ],
      "name": "parseHeader",
      "outputs": [
        {
          "components": [
            {
              "internalType": "uint32",
              "name": "version",
              "type": "uint32"
            },
            {
              "internalType": "bytes32",
              "name": "prevHash",
              "type": "bytes32"
            },
            {
              "internalType": "bytes32",
              "name": "merkleRoot",
              "type": "bytes32"
            },
            {
              "internalType": "uint32",
              "name": "timestamp",
              "type": "uint32"
            },
            {
              "internalType": "uint32",
              "name": "bits",
              "type": "uint32"
            },
            {
              "internalType": "uint32",
              "name": "nonce",
              "type": "uint32"
            }
          ],
          "internalType": "struct BitcoinSPV.BlockHeader",
          "name": "",
          "type": "tuple"
        }
      ],
      "stateMutability": "pure",
      "type": "function"
    },
    {
      "inputs": [
        {
          "internalType": "bytes",
          "name": "header",
          "type": "bytes"
        },
        {
          "internalType": "uint256",
          "name": "simplifiedTarget",
          "type": "uint256"
        }
      ],
      "name": "submitHeader",
      "outputs": [],
      "stateMutability": "nonpayable",
      "type": "function"
    },
    {
      "inputs": [
        {
          "internalType": "bytes32",
          "name": "txid",
          "type": "bytes32"
        },
        {
          "internalType": "bytes32",
          "name": "merkleRoot",
          "type": "bytes32"
        },
        {
          "internalType": "bytes32[]",
          "name": "proof",
          "type": "bytes32[]"
        },
        {
          "internalType": "uint256",
          "name": "index",
          "type": "uint256"
        }
      ],
      "name": "verifyTxInclusion",
      "outputs": [
        {
          "internalType": "bool",
          "name": "",
          "type": "bool"
        }
      ],
      "stateMutability": "pure",
      "type": "function"
    }
  ],
  "bytecode": "0x608060405234801561001057600080fd5b506040516200120f3803806200120f833981810160405281019061003491906100a0565b600160008083815260200190815260200160002060006101000a81548160ff021916908315150217905550506100cd565b600080fd5b6000819050919050565b61007d8161006a565b811461008857600080fd5b50565b60008151905061009a81610074565b92915050565b6000602082840312156100b6576100b5610065565b5b60006100c48482850161008b565b91505092915050565b61113280620000dd6000396000f3fe608060405234801561001057600080fd5b50600436106100625760003560e01c806339097b081461006757806339efb09a1461009757806353c1f440146100c757806372464ca0146100e35780639be1cb4214610113578063bfaa35cd14610143575b600080fd5b610081600480360381019061007c9190610966565b610173565b60405161008e9190610a04565b60405180910390f35b6100b160048036038101906100ac9190610ad4565b610248565b6040516100be9190610b2c565b60405180910390f35b6100e160048036038101906100dc9190610b47565b61030e565b005b6100fd60048036038101906100f89190610ad4565b610476565b60405161010a9190610c4c565b60405180910390f35b61012d60048036038101906101289190610b47565b61056e565b60405161013a9190610a04565b60405180910390f35b61015d60048036038101906101589190610c67565b61059a565b60405161016a9190610a04565b60405180910390f35b60008085905060005b845181101561023957600085828151811061019a57610199610c94565b5b6020026020010151905060006002866101b39190610cf2565b036101e9576101e283826040516020016101ce929190610d44565b604051602081830303815290604052610248565b9250610216565b61021381846040516020016101ff929190610d44565b604051602081830303815290604052610248565b92505b6002856102239190610d9f565b945050808061023190610dd0565b91505061017c565b50848114915050949350505050565b60006002808360405161025b9190610e89565b602060405180830381855afa158015610278573d6000803e3d6000fd5b5050506040513d601f19601f8201168201806040525081019061029b9190610eb5565b6040516020016102ab9190610ee2565b6040516020818303038152906040526040516102c79190610e89565b602060405180830381855afa1580156102e4573d6000803e3d6000fd5b5050506040513d601f19601f820116820180604052508101906103079190610eb5565b9050919050565b6050825114610352576040517f08c379a000000000000000000000000000000000000000000000000000000000815260040161034990610f5a565b60405180910390fd5b61035c828261056e565b61039b576040517f08c379a000000000000000000000000000000000000000000000000000000000815260040161039290610fc6565b60405180910390fd5b60006103a683610476565b90506000808260200151815260200190815260200160002060009054906101000a900460ff1661040b576040517f08c379a000000000000000000000000000000000000000000000000000000000815260040161040290611032565b60405180910390fd5b600061041684610248565b9050600160008083815260200190815260200160002060006101000a81548160ff021916908315150217905550807f9a0b1fc3e55fad5d7577629f51d0b98bcffcb3be1f1f581a37837fb78b619b3860405160405180910390a250505050565b61047e610739565b60508251146104c2576040517f08c379a00000000000000000000000000000000000000000000000000000000081526004016104b990610f5a565b60405180910390fd5b60006104cf8360006105ba565b905060006104de846004610699565b905060006104ed856024610699565b905060006104fc8660446105ba565b9050600061050b8760486105ba565b9050600061051a88604c6105ba565b90506040518060c001604052808763ffffffff1681526020018681526020018581526020018463ffffffff1681526020018363ffffffff1681526020018263ffffffff168152509650505050505050919050565b60008061057a84610248565b90506000610587826106af565b60001c9050838111159250505092915050565b60006020528060005260406000206000915054906101000a900460ff1681565b60006018836003846105cc9190611052565b815181106105dd576105dc610c94565b5b602001015160f81c60f81b60f81c60ff1663ffffffff16901b6010846002856106069190611052565b8151811061061757610616610c94565b5b602001015160f81c60f81b60f81c60ff1663ffffffff16901b6008856001866106409190611052565b8151811061065157610650610c94565b5b602001015160f81c60f81b60f81c60ff1663ffffffff16901b85858151811061067d5761067c610c94565b5b602001015160f81c60f81b60f81c60ff16171717905092915050565b6000808260208501015190508091505092915050565b60008060005b602081101561072f57600881601f6106cd9190611086565b6106d791906110ba565b60ff60f81b8583602081106106ef576106ee610c94565b5b1a60f81b167effffffffffffffffffffffffffffffffffffffffffffffffffffffffffffff1916901c82179150808061072790610dd0565b9150506106b5565b5080915050919050565b6040518060c00160405280600063ffffffff1681526020016000801916815260200160008019168152602001600063ffffffff168152602001600063ffffffff168152602001600063ffffffff1681525090565b6000604051905090565b600080fd5b600080fd5b6000819050919050565b6107b4816107a1565b81146107bf57600080fd5b50565b6000813590506107d1816107ab565b92915050565b600080fd5b6000601f19601f8301169050919050565b7f4e487b7100000000000000000000000000000000000000000000000000000000600052604160045260246000fd5b610825826107dc565b810181811067ffffffffffffffff82111715610844576108436107ed565b5b80604052505050565b600061085761078d565b9050610863828261081c565b919050565b600067ffffffffffffffff821115610883576108826107ed565b5b602082029050602081019050919050565b600080fd5b60006108ac6108a784610868565b61084d565b905080838252602082019050602084028301858111156108cf576108ce610894565b5b835b818110156108f857806108e488826107c2565b8452602084019350506020810190506108d1565b5050509392505050565b600082601f830112610917576109166107d7565b5b8135610927848260208601610899565b91505092915050565b6000819050919050565b61094381610930565b811461094e57600080fd5b50565b6000813590506109608161093a565b92915050565b600080600080608085870312156109805761097f610797565b5b600061098e878288016107c2565b945050602061099f878288016107c2565b935050604085013567ffffffffffffffff8111156109c0576109bf61079c565b5b6109cc87828801610902565b92505060606109dd87828801610951565b91505092959194509250565b60008115159050919050565b6109fe816109e9565b82525050565b6000602082019050610a1960008301846109f5565b92915050565b600080fd5b600067ffffffffffffffff821115610a3f57610a3e6107ed565b5b610a48826107dc565b9050602081019050919050565b82818337600083830152505050565b6000610a77610a7284610a24565b61084d565b905082815260208101848484011115610a9357610a92610a1f565b5b610a9e848285610a55565b509392505050565b600082601f830112610abb57610aba6107d7565b5b8135610acb848260208601610a64565b91505092915050565b600060208284031215610aea57610ae9610797565b5b600082013567ffffffffffffffff811115610b0857610b0761079c565b5b610b1484828501610aa6565b91505092915050565b610b26816107a1565b82525050565b6000602082019050610b416000830184610b1d565b92915050565b60008060408385031215610b5e57610b5d610797565b5b600083013567ffffffffffffffff811115610b7c57610b7b61079c565b5b610b8885828601610aa6565b9250506020610b9985828601610951565b9150509250929050565b600063ffffffff82169050919050565b610bbc81610ba3565b82525050565b610bcb816107a1565b82525050565b60c082016000820151610be76000850182610bb3565b506020820151610bfa6020850182610bc2565b506040820151610c0d6040850182610bc2565b506060820151610c206060850182610bb3565b506080820151610c336080850182610bb3565b5060a0820151610c4660a0850182610bb3565b50505050565b600060c082019050610c616000830184610bd1565b92915050565b600060208284031215610c7d57610c7c610797565b5b6000610c8b848285016107c2565b91505092915050565b7f4e487b7100000000000000000000000000000000000000000000000000000000600052603260045260246000fd5b7f4e487b7100000000000000000000000000000000000000000000000000000000600052601260045260246000fd5b6000610cfd82610930565b9150610d0883610930565b925082610d1857610d17610cc3565b5b828206905092915050565b6000819050919050565b610d3e610d39826107a1565b610d23565b82525050565b6000610d508285610d2d565b602082019150610d608284610d2d565b6020820191508190509392505050565b7f4e487b7100000000000000000000000000000000000000000000000000000000600052601160045260246000fd5b6000610daa82610930565b9150610db583610930565b925082610dc557610dc4610cc3565b5b828204905092915050565b6000610ddb82610930565b91507fffffffffffffffffffffffffffffffffffffffffffffffffffffffffffffffff8203610e0d57610e0c610d70565b5b600182019050919050565b600081519050919050565b600081905092915050565b60005b83811015610e4c578082015181840152602081019050610e31565b60008484015250505050565b6000610e6382610e18565b610e6d8185610e23565b9350610e7d818560208601610e2e565b80840191505092915050565b6000610e958284610e58565b915081905092915050565b600081519050610eaf816107ab565b92915050565b600060208284031215610ecb57610eca610797565b5b6000610ed984828501610ea0565b91505092915050565b6000610eee8284610d2d565b60208201915081905092915050565b600082825260208201905092915050565b7f496e76616c696420686561646572206c656e6774680000000000000000000000600082015250565b6000610f44601583610efd565b9150610f4f82610f0e565b602082019050919050565b60006020820190508181036000830152610f7381610f37565b9050919050565b7f506f5720746172676574206e6f74206d65740000000000000000000000000000600082015250565b6000610fb0601283610efd565b9150610fbb82610f7a565b602082019050919050565b60006020820190508181036000830152610fdf81610fa3565b9050919050565b7f50726576696f757320626c6f636b20756e6b6e6f776e00000000000000000000600082015250565b600061101c601683610efd565b915061102782610fe6565b602082019050919050565b6000602082019050818103600083015261104b8161100f565b9050919050565b600061105d82610930565b915061106883610930565b92508282019050808211156110805761107f610d70565b5b92915050565b600061109182610930565b915061109c83610930565b92508282039050818111156110b4576110b3610d70565b5b92915050565b60006110c582610930565b91506110d083610930565b92508282026110de81610930565b915082820484148315176110f5576110f4610d70565b5b509291505056fea26469706673582212203834f3a3dffbae2586a3323dfafaf38fe2b7abe2bd2ef6575c6b9e136c23ab5764736f6c63430008140033",
  "linkReferences": {},
  "deployedLinkReferences": {}
}